{
  "_format": "hh-sol-artifact-1",
  "contractName": "AcademicVerification",
  "sourceName": "contracts/AcademicVerification.sol",
  "abi": [
    {
      "inputs": [],
      "stateMutability": "nonpayable",
      "type": "constructor"
    },
    {
      "anonymous": false,
      "inputs": [
        {
          "indexed": true,
          "internalType": "bytes32",
          "name": "credentialHash",
          "type": "bytes32"
        },
        {
          "indexed": false,
          "internalType": "string",
          "name": "studentId",
          "type": "string"
        },
        {
          "indexed": false,
          "internalType": "string",
          "name": "institutionId",
          "type": "string"
        },
        {
          "indexed": true,
          "internalType": "address",
          "name": "issuer",
          "type": "address"
        },
        {
          "indexed": false,
          "internalType": "uint256",
          "name": "issuedAt",
          "type": "uint256"
        }
      ],
      "name": "CredentialIssued",
      "type": "event"
    },
    {
      "anonymous": false,
      "inputs": [
        {
          "indexed": true,
          "internalType": "bytes32",
          "name": "credentialHash",
          "type": "bytes32"
        },
        {
          "indexed": true,
          "internalType": "address",
          "name": "revokedBy",
          "type": "address"
        },
        {
          "indexed": false,
          "internalType": "uint256",
          "name": "timestamp",
          "type": "uint256"
        }
      ],
      "name": "CredentialRevoked",
      "type": "event"
    },
    {
      "anonymous": false,
      "inputs": [
        {
          "indexed": true,
          "internalType": "address",
          "name": "institution",
          "type": "address"
        },
        {
          "indexed": false,
          "internalType": "bool",
          "name": "approved",
          "type": "bool"
        }
      ],
      "name": "InstitutionUpdated",
      "type": "event"
    },
    {
      "inputs": [
        {
          "internalType": "bytes32[]",
          "name": "hashes",
          "type": "bytes32[]"
        }
      ],
      "name": "batchVerify",
      "outputs": [
        {
          "internalType": "bool[]",
          "name": "",
          "type": "bool[]"
        }
      ],
      "stateMutability": "view",
      "type": "function"
    },
    {
      "inputs": [
        {
          "internalType": "bytes32",
          "name": "",
          "type": "bytes32"
        }
      ],
      "name": "credentials",
      "outputs": [
        {
          "internalType": "bytes32",
          "name": "credentialHash",
          "type": "bytes32"
        },
        {
          "internalType": "string",
          "name": "studentId",
          "type": "string"
        },
        {
          "internalType": "string",
          "name": "institutionId",
          "type": "string"
        },
        {
          "internalType": "uint256",
          "name": "issuedAt",
          "type": "uint256"
        },
        {
          "internalType": "address",
          "name": "issuer",
          "type": "address"
        },
        {
          "internalType": "bool",
          "name": "revoked",
          "type": "bool"
        }
      ],
      "stateMutability": "view",
      "type": "function"
    },
    {
      "inputs": [
        {
          "internalType": "bytes32",
          "name": "_hash",
          "type": "bytes32"
        }
      ],
      "name": "getCredential",
      "outputs": [
        {
          "components": [
            {
              "internalType": "bytes32",
              "name": "credentialHash",
              "type": "bytes32"
            },
            {
              "internalType": "string",
              "name": "studentId",
              "type": "string"
            },
            {
              "internalType": "string",
              "name": "institutionId",
              "type": "string"
            },
            {
              "internalType": "uint256",
              "name": "issuedAt",
              "type": "uint256"
            },
            {
              "internalType": "address",
              "name": "issuer",
              "type": "address"
            },
            {
              "internalType": "bool",
              "name": "revoked",
              "type": "bool"
            }
          ],
          "internalType": "struct AcademicVerification.Credential",
          "name": "",
          "type": "tuple"
        }
      ],
      "stateMutability": "view",
      "type": "function"
    },
    {
      "inputs": [
        {
          "internalType": "address",
          "name": "",
          "type": "address"
        }
      ],
      "name": "institutions",
      "outputs": [
        {
          "internalType": "bool",
          "name": "",
          "type": "bool"
        }
      ],
      "stateMutability": "view",
      "type": "function"
    },
    {
      "inputs": [
        {
          "internalType": "bytes32",
          "name": "_credentialHash",
          "type": "bytes32"
        },
        {
          "internalType": "string",
          "name": "_studentId",
          "type": "string"
        },
        {
          "internalType": "string",
          "name": "_institutionId",
          "type": "string"
        }
      ],
      "name": "issueCredential",
      "outputs": [],
      "stateMutability": "nonpayable",
      "type": "function"
    },
    {
      "inputs": [],
      "name": "owner",
      "outputs": [
        {
          "internalType": "address",
          "name": "",
          "type": "address"
        }
      ],
      "stateMutability": "view",
      "type": "function"
    },
    {
      "inputs": [
        {
          "internalType": "bytes32",
          "name": "_credentialHash",
          "type": "bytes32"
        }
      ],
      "name": "revokeCredential",
      "outputs": [],
      "stateMutability": "nonpayable",
      "type": "function"
    },
    {
      "inputs": [
        {
          "internalType": "address",
          "name": "_institution",
          "type": "address"
        },
        {
          "internalType": "bool",
          "name": "_approved",
          "type": "bool"
        }
      ],
      "name": "setInstitution",
      "outputs": [],
      "stateMutability": "nonpayable",
      "type": "function"
    },
    {
      "inputs": [
        {
          "internalType": "bytes32",
          "name": "_credentialHash",
          "type": "bytes32"
        }
      ],
      "name": "verifyCredential",
      "outputs": [
        {
          "internalType": "bool",
          "name": "valid",
          "type": "bool"
        },
        {
          "internalType": "string",
          "name": "studentId",
          "type": "string"
        },
        {
          "internalType": "string",
          "name": "institutionId",
          "type": "string"
        },
        {
          "internalType": "address",
          "name": "issuer",
          "type": "address"
        },
        {
          "internalType": "uint256",
          "name": "issuedAt",
          "type": "uint256"
        },
        {
          "internalType": "bool",
          "name": "revoked",
          "type": "bool"
        }
      ],
      "stateMutability": "view",
      "type": "function"
    }
  ],
  "bytecode": "0x6080604052348015600f57600080fd5b50600080546001600160a01b031916331790556110b6806100316000396000f3fe608060405234801561001057600080fd5b50600436106100935760003560e01c8063b2d9767f11610066578063b2d9767f1461012b578063c8fa61571461015e578063ca6eec781461017e578063d0f80e7714610191578063d1be4883146101a457600080fd5b8063299d0348146100985780634dbf87cc146100c65780636a4c7b2c146100eb5780638da5cb5b14610100575b600080fd5b6100ab6100a6366004610b1c565b6101c4565b6040516100bd96959493929190610b7b565b60405180910390f35b6100d96100d4366004610b1c565b610318565b6040516100bd96959493929190610bd0565b6100fe6100f9366004610c43565b61050e565b005b600054610113906001600160a01b031681565b6040516001600160a01b0390911681526020016100bd565b61014e610139366004610c7f565b60016020526000908152604090205460ff1681565b60405190151581526020016100bd565b61017161016c366004610ca1565b6105b8565b6040516100bd9190610d18565b6100fe61018c366004610b1c565b6106b6565b6100fe61019f366004610e02565b6107c5565b6101b76101b2366004610b1c565b610967565b6040516100bd9190610e74565b600260205260009081526040902080546001820180549192916101e690610eec565b80601f016020809104026020016040519081016040528092919081815260200182805461021290610eec565b801561025f5780601f106102345761010080835404028352916020019161025f565b820191906000526020600020905b81548152906001019060200180831161024257829003601f168201915b50505050509080600201805461027490610eec565b80601f01602080910402602001604051908101604052809291908181526020018280546102a090610eec565b80156102ed5780601f106102c2576101008083540402835291602001916102ed565b820191906000526020600020905b8154815290600101906020018083116102d057829003601f168201915b5050505060038301546004909301549192916001600160a01b0381169150600160a01b900460ff1686565b6000606080600080600080600260008981526020019081526020016000206040518060c00160405290816000820154815260200160018201805461035b90610eec565b80601f016020809104026020016040519081016040528092919081815260200182805461038790610eec565b80156103d45780601f106103a9576101008083540402835291602001916103d4565b820191906000526020600020905b8154815290600101906020018083116103b757829003601f168201915b505050505081526020016002820180546103ed90610eec565b80601f016020809104026020016040519081016040528092919081815260200182805461041990610eec565b80156104665780601f1061043b57610100808354040283529160200191610466565b820191906000526020600020905b81548152906001019060200180831161044957829003601f168201915b5050509183525050600382015460208201526004909101546001600160a01b0381166040830152600160a01b900460ff1615156060918201528101519091506000036104dc5750506040805160208082018352600080835283519182019093528281529196509450925084915081905080610505565b600181602001518260400151836080015184606001518560a00151965096509650965096509650505b91939550919395565b6000546001600160a01b031633146105595760405162461bcd60e51b81526020600482015260096024820152682737ba1037bbb732b960b91b60448201526064015b60405180910390fd5b6001600160a01b038216600081815260016020908152604091829020805460ff191685151590811790915591519182527f152b3c711613d9d7b0bf97b78df723cb1c173adf62973aab9747b85355e7f708910160405180910390a25050565b606060008267ffffffffffffffff8111156105d5576105d5610d5d565b6040519080825280602002602001820160405280156105fe578160200160208202803683370190505b50905060005b838110156106ae576002600086868481811061062257610622610f26565b9050602002013581526020019081526020016000206003015460001415801561068457506002600086868481811061065c5761065c610f26565b90506020020135815260200190815260200160002060040160149054906101000a900460ff16155b82828151811061069657610696610f26565b91151560209283029190910190910152600101610604565b509392505050565b3360009081526001602052604090205460ff166107155760405162461bcd60e51b815260206004820152601c60248201527f4e6f742061207265676973746572656420696e737469747574696f6e000000006044820152606401610550565b60008181526002602052604081206003015490036107625760405162461bcd60e51b815260206004820152600a602482015269139bdd081a5cdcdd595960b21b6044820152606401610550565b60008181526002602052604090819020600401805460ff60a01b1916600160a01b17905551339082907f80d4746828447d65eceb938c7f9d85fbeb232fe7819d5209ed452b3940f8904b906107ba9042815260200190565b60405180910390a350565b3360009081526001602052604090205460ff166108245760405162461bcd60e51b815260206004820152601c60248201527f4e6f742061207265676973746572656420696e737469747574696f6e000000006044820152606401610550565b600083815260026020526040902060030154156108745760405162461bcd60e51b815260206004820152600e60248201526d105b1c9958591e481a5cdcdd595960921b6044820152606401610550565b6040805160c0810182528481526020808201858152828401859052426060840152336080840152600060a08401819052878152600290925292902081518155915190919060018201906108c79082610f8b565b50604082015160028201906108dc9082610f8b565b506060820151600382015560808201516004909101805460a0909301511515600160a01b026001600160a81b03199093166001600160a01b0390921691909117919091179055604051339084907fb51c0f52acfefb0cc03cf512370f8553c35479545bbd4c6ff54a0f3e1640e4b19061095a9086908690429061104a565b60405180910390a3505050565b6040805160c08101825260008082526060602083018190529282018390529181018290526080810182905260a0810191909152600260008381526020019081526020016000206040518060c0016040529081600082015481526020016001820180546109d290610eec565b80601f01602080910402602001604051908101604052809291908181526020018280546109fe90610eec565b8015610a4b5780601f10610a2057610100808354040283529160200191610a4b565b820191906000526020600020905b815481529060010190602001808311610a2e57829003601f168201915b50505050508152602001600282018054610a6490610eec565b80601f0160208091040260200160405190810160405280929190818152602001828054610a9090610eec565b8015610add5780601f10610ab257610100808354040283529160200191610add565b820191906000526020600020905b815481529060010190602001808311610ac057829003601f168201915b5050509183525050600382015460208201526004909101546001600160a01b0381166040830152600160a01b900460ff16151560609091015292915050565b600060208284031215610b2e57600080fd5b5035919050565b6000815180845260005b81811015610b5b57602081850181015186830182015201610b3f565b506000602082860101526020601f19601f83011685010191505092915050565b86815260c060208201526000610b9460c0830188610b35565b8281036040840152610ba68188610b35565b606084019690965250506001600160a01b03929092166080830152151560a0909101529392505050565b861515815260c060208201526000610beb60c0830188610b35565b8281036040840152610bfd8188610b35565b6001600160a01b0396909616606084015250506080810192909252151560a0909101529392505050565b80356001600160a01b0381168114610c3e57600080fd5b919050565b60008060408385031215610c5657600080fd5b610c5f83610c27565b915060208301358015158114610c7457600080fd5b809150509250929050565b600060208284031215610c9157600080fd5b610c9a82610c27565b9392505050565b60008060208385031215610cb457600080fd5b823567ffffffffffffffff811115610ccb57600080fd5b8301601f81018513610cdc57600080fd5b803567ffffffffffffffff811115610cf357600080fd5b8560208260051b8401011115610d0857600080fd5b6020919091019590945092505050565b602080825282518282018190526000918401906040840190835b81811015610d525783511515835260209384019390920191600101610d32565b509095945050505050565b634e487b7160e01b600052604160045260246000fd5b600082601f830112610d8457600080fd5b813567ffffffffffffffff811115610d9e57610d9e610d5d565b604051601f8201601f19908116603f0116810167ffffffffffffffff81118282101715610dcd57610dcd610d5d565b604052818152838201602001851015610de557600080fd5b816020850160208301376000918101602001919091529392505050565b600080600060608486031215610e1757600080fd5b83359250602084013567ffffffffffffffff811115610e3557600080fd5b610e4186828701610d73565b925050604084013567ffffffffffffffff811115610e5e57600080fd5b610e6a86828701610d73565b9150509250925092565b60208152815160208201526000602083015160c06040840152610e9a60e0840182610b35565b90506040840151601f19848303016060850152610eb78282610b35565b9150506060840151608084015260018060a01b0360808501511660a084015260a0840151151560c08401528091505092915050565b600181811c90821680610f0057607f821691505b602082108103610f2057634e487b7160e01b600052602260045260246000fd5b50919050565b634e487b7160e01b600052603260045260246000fd5b601f821115610f8657806000526020600020601f840160051c81016020851015610f635750805b601f840160051c820191505b81811015610f835760008155600101610f6f565b50505b505050565b815167ffffffffffffffff811115610fa557610fa5610d5d565b610fb981610fb38454610eec565b84610f3c565b6020601f821160018114610fed5760008315610fd55750848201515b600019600385901b1c1916600184901b178455610f83565b600084815260208120601f198516915b8281101561101d5787850151825560209485019460019092019101610ffd565b508482101561103b5786840151600019600387901b60f8161c191681555b50505050600190811b01905550565b60608152600061105d6060830186610b35565b828103602084015261106f8186610b35565b91505082604083015294935050505056fea2646970667358221220c3149393297fc5679cbc8ee6043cb0b65bd6138abf221c171539f1eb02bec9c864736f6c634300081c0033",
  "linkReferences": {},
  "deployedLinkReferences": {}
}