{
  "_format": "hh-sol-artifact-1",
  "contractName": "CertificateNFT",
  "sourceName": "contracts/CertificateNFT.sol",
  "abi": [
    {
      "inputs": [],
      "stateMutability": "nonpayable",
      "type": "constructor"
    },
    {
      "inputs": [
        {
          "internalType": "address",
          "name": "sender",
          "type": "address"
        },
        {
          "internalType": "uint256",
          "name": "tokenId",
          "type": "uint256"
        },
        {
          "internalType": "address",
          "name": "owner",
          "type": "address"
        }
      ],
      "name": "ERC721IncorrectOwner",
      "type": "error"
    },
    {
      "inputs": [
        {
          "internalType": "address",
          "name": "operator",
          "type": "address"
        },
        {
          "internalType": "uint256",
          "name": "tokenId",
          "type": "uint256"
        }
      ],
      "name": "ERC721InsufficientApproval",
      "type": "error"
    },
    {
      "inputs": [
        {
          "internalType": "address",
          "name": "approver",
          "type": "address"
        }
      ],
      "name": "ERC721InvalidApprover",
      "type": "error"
    },
    {
      "inputs": [
        {
          "internalType": "address",
          "name": "operator",
          "type": "address"
        }
      ],
      "name": "ERC721InvalidOperator",
      "type": "error"
    },
    {
      "inputs": [
        {
          "internalType": "address",
          "name": "owner",
          "type": "address"
        }
      ],
      "name": "ERC721InvalidOwner",
      "type": "error"
    },
    {
      "inputs": [
        {
          "internalType": "address",
          "name": "receiver",
          "type": "address"
        }
      ],
      "name": "ERC721InvalidReceiver",
      "type": "error"
    },
    {
      "inputs": [
        {
          "internalType": "address",
          "name": "sender",
          "type": "address"
        }
      ],
      "name": "ERC721InvalidSender",
      "type": "error"
    },
    {
      "inputs": [
        {
          "internalType": "uint256",
          "name": "tokenId",
          "type": "uint256"
        }
      ],
      "name": "ERC721NonexistentToken",
      "type": "error"
    },
    {
      "inputs": [
        {
          "internalType": "address",
          "name": "owner",
          "type": "address"
        }
      ],
      "name": "OwnableInvalidOwner",
      "type": "error"
    },
    {
      "inputs": [
        {
          "internalType": "address",
          "name": "account",
          "type": "address"
        }
      ],
      "name": "OwnableUnauthorizedAccount",
      "type": "error"
    },
    {
      "inputs": [
        {
          "internalType": "uint256",
          "name": "value",
          "type": "uint256"
        },
        {
          "internalType": "uint256",
          "name": "length",
          "type": "uint256"
        }
      ],
      "name": "StringsInsufficientHexLength",
      "type": "error"
    },
    {
      "anonymous": false,
      "inputs": [
        {
          "indexed": true,
          "internalType": "address",
          "name": "owner",
          "type": "address"
        },
        {
          "indexed": true,
          "internalType": "address",
          "name": "approved",
          "type": "address"
        },
        {
          "indexed": true,
          "internalType": "uint256",
          "name": "tokenId",
          "type": "uint256"
        }
      ],
      "name": "Approval",
      "type": "event"
    },
    {
      "anonymous": false,
      "inputs": [
        {
          "indexed": true,
          "internalType": "address",
          "name": "owner",
          "type": "address"
        },
        {
          "indexed": true,
          "internalType": "address",
          "name": "operator",
          "type": "address"
        },
        {
          "indexed": false,
          "internalType": "bool",
          "name": "approved",
          "type": "bool"
        }
      ],
      "name": "ApprovalForAll",
      "type": "event"
    },
    {
      "anonymous": false,
      "inputs": [
        {
          "indexed": false,
          "internalType": "uint256",
          "name": "_fromTokenId",
          "type": "uint256"
        },
        {
          "indexed": false,
          "internalType": "uint256",
          "name": "_toTokenId",
          "type": "uint256"
        }
      ],
      "name": "BatchMetadataUpdate",
      "type": "event"
    },
    {
      "anonymous": false,
      "inputs": [
        {
          "indexed": true,
          "internalType": "uint256",
          "name": "tokenId",
          "type": "uint256"
        },
        {
          "indexed": true,
          "internalType": "address",
          "name": "to",
          "type": "address"
        },
        {
          "indexed": false,
          "internalType": "string",
          "name": "studentName",
          "type": "string"
        },
        {
          "indexed": false,
          "internalType": "string",
          "name": "degree",
          "type": "string"
        },
        {
          "indexed": false,
          "internalType": "string",
          "name": "university",
          "type": "string"
        },
        {
          "indexed": false,
          "internalType": "uint64",
          "name": "issueDate",
          "type": "uint64"
        },
        {
          "indexed": false,
          "internalType": "bytes32",
          "name": "hash",
          "type": "bytes32"
        }
      ],
      "name": "CertificateMinted",
      "type": "event"
    },
    {
      "anonymous": false,
      "inputs": [
        {
          "indexed": false,
          "internalType": "uint256",
          "name": "_tokenId",
          "type": "uint256"
        }
      ],
      "name": "MetadataUpdate",
      "type": "event"
    },
    {
      "anonymous": false,
      "inputs": [
        {
          "indexed": true,
          "internalType": "address",
          "name": "previousOwner",
          "type": "address"
        },
        {
          "indexed": true,
          "internalType": "address",
          "name": "newOwner",
          "type": "address"
        }
      ],
      "name": "OwnershipTransferred",
      "type": "event"
    },
    {
      "anonymous": false,
      "inputs": [
        {
          "indexed": true,
          "internalType": "address",
          "name": "from",
          "type": "address"
        },
        {
          "indexed": true,
          "internalType": "address",
          "name": "to",
          "type": "address"
        },
        {
          "indexed": true,
          "internalType": "uint256",
          "name": "tokenId",
          "type": "uint256"
        }
      ],
      "name": "Transfer",
      "type": "event"
    },
    {
      "inputs": [
        {
          "internalType": "address",
          "name": "to",
          "type": "address"
        },
        {
          "internalType": "uint256",
          "name": "tokenId",
          "type": "uint256"
        }
      ],
      "name": "approve",
      "outputs": [],
      "stateMutability": "nonpayable",
      "type": "function"
    },
    {
      "inputs": [
        {
          "internalType": "address",
          "name": "owner",
          "type": "address"
        }
      ],
      "name": "balanceOf",
      "outputs": [
        {
          "internalType": "uint256",
          "name": "",
          "type": "uint256"
        }
      ],
      "stateMutability": "view",
      "type": "function"
    },
    {
      "inputs": [
        {
          "internalType": "uint256",
          "name": "tokenId",
          "type": "uint256"
        }
      ],
      "name": "certificateStruct",
      "outputs": [
        {
          "components": [
            {
              "internalType": "string",
              "name": "studentName",
              "type": "string"
            },
            {
              "internalType": "string",
              "name": "degree",
              "type": "string"
            },
            {
              "internalType": "string",
              "name": "university",
              "type": "string"
            },
            {
              "internalType": "uint64",
              "name": "issueDate",
              "type": "uint64"
            },
            {
              "internalType": "bytes32",
              "name": "hash",
              "type": "bytes32"
            }
          ],
          "internalType": "struct CertificateNFT.Certificate",
          "name": "",
          "type": "tuple"
        }
      ],
      "stateMutability": "view",
      "type": "function"
    },
    {
      "inputs": [
        {
          "internalType": "uint256",
          "name": "tokenId",
          "type": "uint256"
        }
      ],
      "name": "getApproved",
      "outputs": [
        {
          "internalType": "address",
          "name": "",
          "type": "address"
        }
      ],
      "stateMutability": "view",
      "type": "function"
    },
    {
      "inputs": [
        {
          "internalType": "uint256",
          "name": "tokenId",
          "type": "uint256"
        }
      ],
      "name": "getCertificate",
      "outputs": [
        {
          "internalType": "string",
          "name": "",
          "type": "string"
        },
        {
          "internalType": "string",
          "name": "",
          "type": "string"
        },
        {
          "internalType": "string",
          "name": "",
          "type": "string"
        },
        {
          "internalType": "uint64",
          "name": "",
          "type": "uint64"
        },
        {
          "internalType": "bytes32",
          "name": "",
          "type": "bytes32"
        }
      ],
      "stateMutability": "view",
      "type": "function"
    },
    {
      "inputs": [
        {
          "internalType": "uint256",
          "name": "tokenId",
          "type": "uint256"
        }
      ],
      "name": "getTokenDetails",
      "outputs": [
        {
          "internalType": "string",
          "name": "",
          "type": "string"
        },
        {
          "internalType": "string",
          "name": "",
          "type": "string"
        },
        {
          "internalType": "string",
          "name": "",
          "type": "string"
        },
        {
          "internalType": "uint64",
          "name": "",
          "type": "uint64"
        },
        {
          "internalType": "bytes32",
          "name": "",
          "type": "bytes32"
        }
      ],
      "stateMutability": "view",
      "type": "function"
    },
    {
      "inputs": [
        {
          "internalType": "bytes32",
          "name": "",
          "type": "bytes32"
        }
      ],
      "name": "hashUsed",
      "outputs": [
        {
          "internalType": "bool",
          "name": "",
          "type": "bool"
        }
      ],
      "stateMutability": "view",
      "type": "function"
    },
    {
      "inputs": [
        {
          "internalType": "address",
          "name": "owner",
          "type": "address"
        },
        {
          "internalType": "address",
          "name": "operator",
          "type": "address"
        }
      ],
      "name": "isApprovedForAll",
      "outputs": [
        {
          "internalType": "bool",
          "name": "",
          "type": "bool"
        }
      ],
      "stateMutability": "view",
      "type": "function"
    },
    {
      "inputs": [
        {
          "internalType": "address",
          "name": "to",
          "type": "address"
        },
        {
          "internalType": "string",
          "name": "studentName",
          "type": "string"
        },
        {
          "internalType": "string",
          "name": "degree",
          "type": "string"
        },
        {
          "internalType": "string",
          "name": "university",
          "type": "string"
        },
        {
          "internalType": "uint64",
          "name": "issueDate",
          "type": "uint64"
        },
        {
          "internalType": "bytes32",
          "name": "hash",
          "type": "bytes32"
        }
      ],
      "name": "mintCertificate",
      "outputs": [
        {
          "internalType": "uint256",
          "name": "tokenId",
          "type": "uint256"
        }
      ],
      "stateMutability": "nonpayable",
      "type": "function"
    },
    {
      "inputs": [
        {
          "internalType": "address",
          "name": "to",
          "type": "address"
        },
        {
          "internalType": "string",
          "name": "studentName",
          "type": "string"
        },
        {
          "internalType": "string",
          "name": "degree",
          "type": "string"
        },
        {
          "internalType": "string",
          "name": "university",
          "type": "string"
        },
        {
          "internalType": "uint64",
          "name": "issueDate",
          "type": "uint64"
        },
        {
          "internalType": "bytes32",
          "name": "hash",
          "type": "bytes32"
        },
        {
          "internalType": "string",
          "name": "uri",
          "type": "string"
        }
      ],
      "name": "mintCertificateWithURI",
      "outputs": [
        {
          "internalType": "uint256",
          "name": "tokenId",
          "type": "uint256"
        }
      ],
      "stateMutability": "nonpayable",
      "type": "function"
    },
    {
      "inputs": [],
      "name": "name",
      "outputs": [
        {
          "internalType": "string",
          "name": "",
          "type": "string"
        }
      ],
      "stateMutability": "view",
      "type": "function"
    },
    {
      "inputs": [],
      "name": "nextTokenId",
      "outputs": [
        {
          "internalType": "uint256",
          "name": "",
          "type": "uint256"
        }
      ],
      "stateMutability": "view",
      "type": "function"
    },
    {
      "inputs": [],
      "name": "owner",
      "outputs": [
        {
          "internalType": "address",
          "name": "",
          "type": "address"
        }
      ],
      "stateMutability": "view",
      "type": "function"
    },
    {
      "inputs": [
        {
          "internalType": "uint256",
          "name": "tokenId",
          "type": "uint256"
        }
      ],
      "name": "ownerOf",
      "outputs": [
        {
          "internalType": "address",
          "name": "",
          "type": "address"
        }
      ],
      "stateMutability": "view",
      "type": "function"
    },
    {
      "inputs": [],
      "name": "renounceOwnership",
      "outputs": [],
      "stateMutability": "nonpayable",
      "type": "function"
    },
    {
      "inputs": [
        {
          "internalType": "address",
          "name": "from",
          "type": "address"
        },
        {
          "internalType": "address",
          "name": "to",
          "type": "address"
        },
        {
          "internalType": "uint256",
          "name": "tokenId",
          "type": "uint256"
        }
      ],
      "name": "safeTransferFrom",
      "outputs": [],
      "stateMutability": "nonpayable",
      "type": "function"
    },
    {
      "inputs": [
        {
          "internalType": "address",
          "name": "from",
          "type": "address"
        },
        {
          "internalType": "address",
          "name": "to",
          "type": "address"
        },
        {
          "internalType": "uint256",
          "name": "tokenId",
          "type": "uint256"
        },
        {
          "internalType": "bytes",
          "name": "data",
          "type": "bytes"
        }
      ],
      "name": "safeTransferFrom",
      "outputs": [],
      "stateMutability": "nonpayable",
      "type": "function"
    },
    {
      "inputs": [
        {
          "internalType": "address",
          "name": "operator",
          "type": "address"
        },
        {
          "internalType": "bool",
          "name": "approved",
          "type": "bool"
        }
      ],
      "name": "setApprovalForAll",
      "outputs": [],
      "stateMutability": "nonpayable",
      "type": "function"
    },
    {
      "inputs": [
        {
          "internalType": "uint256",
          "name": "tokenId",
          "type": "uint256"
        },
        {
          "internalType": "string",
          "name": "uri",
          "type": "string"
        }
      ],
      "name": "setTokenURI",
      "outputs": [],
      "stateMutability": "nonpayable",
      "type": "function"
    },
    {
      "inputs": [
        {
          "internalType": "bytes4",
          "name": "interfaceId",
          "type": "bytes4"
        }
      ],
      "name": "supportsInterface",
      "outputs": [
        {
          "internalType": "bool",
          "name": "",
          "type": "bool"
        }
      ],
      "stateMutability": "view",
      "type": "function"
    },
    {
      "inputs": [],
      "name": "symbol",
      "outputs": [
        {
          "internalType": "string",
          "name": "",
          "type": "string"
        }
      ],
      "stateMutability": "view",
      "type": "function"
    },
    {
      "inputs": [
        {
          "internalType": "uint256",
          "name": "tokenId",
          "type": "uint256"
        }
      ],
      "name": "tokenURI",
      "outputs": [
        {
          "internalType": "string",
          "name": "",
          "type": "string"
        }
      ],
      "stateMutability": "view",
      "type": "function"
    },
    {
      "inputs": [
        {
          "internalType": "address",
          "name": "from",
          "type": "address"
        },
        {
          "internalType": "address",
          "name": "to",
          "type": "address"
        },
        {
          "internalType": "uint256",
          "name": "tokenId",
          "type": "uint256"
        }
      ],
      "name": "transferFrom",
      "outputs": [],
      "stateMutability": "nonpayable",
      "type": "function"
    },
    {
      "inputs": [
        {
          "internalType": "address",
          "name": "newOwner",
          "type": "address"
        }
      ],
      "name": "transferOwnership",
      "outputs": [],
      "stateMutability": "nonpayable",
      "type": "function"
    }
  ],
  "bytecode": "0x60806040526001600a5534801561001557600080fd5b50336040518060400160405280600e81526020016d10d95c9d1a599a58d85d1953919560921b8152506040518060400160405280600481526020016310d1549560e21b815250816000908161006a91906101a8565b50600161007782826101a8565b5050506001600160a01b0381166100a857604051631e4fbdf760e01b81526000600482015260240160405180910390fd5b6100b1816100b7565b50610266565b600780546001600160a01b038381166001600160a01b0319831681179093556040519116919082907f8be0079c531659141344cd1fd0a4f28419497f9722a3daafe3b4186f6b6457e090600090a35050565b634e487b7160e01b600052604160045260246000fd5b600181811c9082168061013357607f821691505b60208210810361015357634e487b7160e01b600052602260045260246000fd5b50919050565b601f8211156101a357806000526020600020601f840160051c810160208510156101805750805b601f840160051c820191505b818110156101a0576000815560010161018c565b50505b505050565b81516001600160401b038111156101c1576101c1610109565b6101d5816101cf845461011f565b84610159565b6020601f82116001811461020957600083156101f15750848201515b600019600385901b1c1916600184901b1784556101a0565b600084815260208120601f198516915b828110156102395787850151825560209485019460019092019101610219565b50848210156102575786840151600019600387901b60f8161c191681555b50505050600190811b01905550565b6128bc806102756000396000f3fe608060405234801561001057600080fd5b50600436106101585760003560e01c8063715018a6116100c3578063b88d4fde1161007c578063b88d4fde146102fd578063c1e0372814610310578063c87b56dd14610323578063e985e9c514610336578063f1ecb04b14610349578063f2fde38b1461035c57600080fd5b8063715018a6146102a157806375794a3c146102a95780638da5cb5b146102b157806391f0dce8146102c257806395d89b41146102e2578063a22cb465146102ea57600080fd5b806323b872dd1161011557806323b872dd1461020e57806342842e0e1461022157806351640fee14610234578063533e62b6146102585780636352211e1461027b57806370a082311461028e57600080fd5b806301ffc9a71461015d57806306fdde0314610185578063081812fc1461019a578063095ea7b3146101c557806311d5ffea146101da578063162094c4146101fb575b600080fd5b61017061016b366004611d9d565b61036f565b60405190151581526020015b60405180910390f35b61018d610380565b60405161017c9190611e11565b6101ad6101a8366004611e24565b610412565b6040516001600160a01b03909116815260200161017c565b6101d86101d3366004611e59565b61043b565b005b6101ed6101e8366004611f48565b61044a565b60405190815260200161017c565b6101d861020936600461202f565b6104db565b6101d861021c366004612075565b610527565b6101d861022f366004612075565b6105b2565b610247610242366004611e24565b6105d2565b60405161017c9594939291906120b2565b610170610266366004611e24565b60096020526000908152604090205460ff1681565b6101ad610289366004611e24565b6107f2565b6101ed61029c366004612109565b6107fd565b6101d8610845565b600a546101ed565b6007546001600160a01b03166101ad565b6102d56102d0366004611e24565b610859565b60405161017c9190612124565b61018d610aba565b6101d86102f83660046121a5565b610ac9565b6101d861030b3660046121e1565b610ad4565b61024761031e366004611e24565b610aeb565b61018d610331366004611e24565b610d38565b61017061034436600461225c565b610fe3565b6101ed61035736600461228f565b611011565b6101d861036a366004612109565b611253565b600061037a82611291565b92915050565b60606000805461038f9061234c565b80601f01602080910402602001604051908101604052809291908181526020018280546103bb9061234c565b80156104085780601f106103dd57610100808354040283529160200191610408565b820191906000526020600020905b8154815290600101906020018083116103eb57829003601f168201915b5050505050905090565b600061041d826112b6565b506000828152600460205260409020546001600160a01b031661037a565b6104468282336112ef565b5050565b60006104546112fc565b60405163f1ecb04b60e01b8152309063f1ecb04b90610481908b908b908b908b908b908b90600401612386565b6020604051808303816000875af11580156104a0573d6000803e3d6000fd5b505050506040513d601f19601f820116820180604052508101906104c491906123ef565b90506104d08183611329565b979650505050505050565b6104e36112fc565b60006104ee836107f2565b6001600160a01b03160361051d5760405162461bcd60e51b815260040161051490612408565b60405180910390fd5b6104468282611329565b6001600160a01b03821661055157604051633250574960e11b815260006004820152602401610514565b600061055e838333611379565b9050836001600160a01b0316816001600160a01b0316146105ac576040516364283d7b60e01b81526001600160a01b0380861660048301526024820184905282166044820152606401610514565b50505050565b6105cd83838360405180602001604052806000815250610ad4565b505050565b60608080600080806105e3876107f2565b6001600160a01b0316036106095760405162461bcd60e51b815260040161051490612408565b60008681526008602052604090206003810154600482015482548392600184019260028501926001600160401b039092169185906106469061234c565b80601f01602080910402602001604051908101604052809291908181526020018280546106729061234c565b80156106bf5780601f10610694576101008083540402835291602001916106bf565b820191906000526020600020905b8154815290600101906020018083116106a257829003601f168201915b505050505094508380546106d29061234c565b80601f01602080910402602001604051908101604052809291908181526020018280546106fe9061234c565b801561074b5780601f106107205761010080835404028352916020019161074b565b820191906000526020600020905b81548152906001019060200180831161072e57829003601f168201915b5050505050935082805461075e9061234c565b80601f016020809104026020016040519081016040528092919081815260200182805461078a9061234c565b80156107d75780601f106107ac576101008083540402835291602001916107d7565b820191906000526020600020905b8154815290600101906020018083116107ba57829003601f168201915b50505050509250955095509550955095505091939590929450565b600061037a826112b6565b60006001600160a01b038216610829576040516322718ad960e21b815260006004820152602401610514565b506001600160a01b031660009081526003602052604090205490565b61084d6112fc565b6108576000611472565b565b6108976040518060a0016040528060608152602001606081526020016060815260200160006001600160401b03168152602001600080191681525090565b60006108a2836107f2565b6001600160a01b0316036108c85760405162461bcd60e51b815260040161051490612408565b60008281526008602052604090819020815160a081019092528054829082906108f09061234c565b80601f016020809104026020016040519081016040528092919081815260200182805461091c9061234c565b80156109695780601f1061093e57610100808354040283529160200191610969565b820191906000526020600020905b81548152906001019060200180831161094c57829003601f168201915b505050505081526020016001820180546109829061234c565b80601f01602080910402602001604051908101604052809291908181526020018280546109ae9061234c565b80156109fb5780601f106109d0576101008083540402835291602001916109fb565b820191906000526020600020905b8154815290600101906020018083116109de57829003601f168201915b50505050508152602001600282018054610a149061234c565b80601f0160208091040260200160405190810160405280929190818152602001828054610a409061234c565b8015610a8d5780601f10610a6257610100808354040283529160200191610a8d565b820191906000526020600020905b815481529060010190602001808311610a7057829003601f168201915b505050918352505060038201546001600160401b0316602082015260049091015460409091015292915050565b60606001805461038f9061234c565b6104463383836114c4565b610adf848484610527565b6105ac84848484611563565b6060808060008080610afc876107f2565b6001600160a01b031603610b225760405162461bcd60e51b815260040161051490612408565b600086815260086020526040808220815160a08101909252805482908290610b499061234c565b80601f0160208091040260200160405190810160405280929190818152602001828054610b759061234c565b8015610bc25780601f10610b9757610100808354040283529160200191610bc2565b820191906000526020600020905b815481529060010190602001808311610ba557829003601f168201915b50505050508152602001600182018054610bdb9061234c565b80601f0160208091040260200160405190810160405280929190818152602001828054610c079061234c565b8015610c545780601f10610c2957610100808354040283529160200191610c54565b820191906000526020600020905b815481529060010190602001808311610c3757829003601f168201915b50505050508152602001600282018054610c6d9061234c565b80601f0160208091040260200160405190810160405280929190818152602001828054610c999061234c565b8015610ce65780601f10610cbb57610100808354040283529160200191610ce6565b820191906000526020600020905b815481529060010190602001808311610cc957829003601f168201915b505050918352505060038201546001600160401b0316602080830191909152600490920154604091820152825191830151908301516060840151608090940151929b919a509850919650945092505050565b60606000610d45836107f2565b6001600160a01b031603610d6b5760405162461bcd60e51b815260040161051490612408565b600082815260086020526040808220815160a08101909252805482908290610d929061234c565b80601f0160208091040260200160405190810160405280929190818152602001828054610dbe9061234c565b8015610e0b5780601f10610de057610100808354040283529160200191610e0b565b820191906000526020600020905b815481529060010190602001808311610dee57829003601f168201915b50505050508152602001600182018054610e249061234c565b80601f0160208091040260200160405190810160405280929190818152602001828054610e509061234c565b8015610e9d5780601f10610e7257610100808354040283529160200191610e9d565b820191906000526020600020905b815481529060010190602001808311610e8057829003601f168201915b50505050508152602001600282018054610eb69061234c565b80601f0160208091040260200160405190810160405280929190818152602001828054610ee29061234c565b8015610f2f5780601f10610f0457610100808354040283529160200191610f2f565b820191906000526020600020905b815481529060010190602001808311610f1257829003601f168201915b505050918352505060038201546001600160401b039081166020808401919091526004909301546040928301528351928401519184015160608501519495506000949091610f7d911661168c565b6080860151610f8d90602061171e565b604051602001610fa195949392919061244f565b6040516020818303038152906040529050610fbb8161189d565b604051602001610fcb91906125db565b60405160208183030381529060405292505050919050565b6001600160a01b03918216600090815260056020908152604080832093909416825291909152205460ff1690565b600061101b6112fc565b6001600160a01b0387166110655760405162461bcd60e51b8152602060048201526011602482015270125b9d985b1a59081c9958da5c1a595b9d607a1b6044820152606401610514565b60008281526009602052604090205460ff16156110b85760405162461bcd60e51b815260206004820152601160248201527012185cda08185b1c9958591e481d5cd959607a1b6044820152606401610514565b6110c442610e10612636565b6001600160401b0316836001600160401b031611156111185760405162461bcd60e51b815260206004820152601060248201526f4675747572652069737375654461746560801b6044820152606401610514565b600a805490600061112883612655565b91905055905061113887826119fc565b6040805160a08101825287815260208082018890528183018790526001600160401b03861660608301526080820185905260008481526008909152919091208151819061118590826126b5565b506020820151600182019061119a90826126b5565b50604082015160028201906111af90826126b5565b50606082015160038201805467ffffffffffffffff19166001600160401b0390921691909117905560809091015160049091015560008281526009602052604090819020805460ff19166001179055516001600160a01b0388169082907fbbd3fcfc8087332216c09c26c7b8996c2706b92f55ab33d9d56943a930312f0d90611241908a908a908a908a908a906120b2565b60405180910390a39695505050505050565b61125b6112fc565b6001600160a01b03811661128557604051631e4fbdf760e01b815260006004820152602401610514565b61128e81611472565b50565b60006001600160e01b03198216632483248360e11b148061037a575061037a82611a16565b6000818152600260205260408120546001600160a01b03168061037a57604051637e27328960e01b815260048101849052602401610514565b6105cd8383836001611a66565b6007546001600160a01b031633146108575760405163118cdaa760e01b8152336004820152602401610514565b600082815260066020526040902061134182826126b5565b506040518281527ff8e1a15aba9398e019f0b49df1a4fde98ee17ae345cb5f6b5e2c27f5033e8ce79060200160405180910390a15050565b6000828152600260205260408120546001600160a01b03908116908316156113a6576113a6818486611b6c565b6001600160a01b038116156113e4576113c3600085600080611a66565b6001600160a01b038116600090815260036020526040902080546000190190555b6001600160a01b03851615611413576001600160a01b0385166000908152600360205260409020805460010190555b60008481526002602052604080822080546001600160a01b0319166001600160a01b0389811691821790925591518793918516917fddf252ad1be2c89b69c2b068fc378daa952ba7f163c4a11628f55a4df523b3ef91a4949350505050565b600780546001600160a01b038381166001600160a01b0319831681179093556040519116919082907f8be0079c531659141344cd1fd0a4f28419497f9722a3daafe3b4186f6b6457e090600090a35050565b6001600160a01b0382166114f657604051630b61174360e31b81526001600160a01b0383166004820152602401610514565b6001600160a01b03838116600081815260056020908152604080832094871680845294825291829020805460ff191686151590811790915591519182527f17307eab39ab6107e8899845ad3d59bd9653f200f220920489ca2b5937696c31910160405180910390a3505050565b6001600160a01b0383163b156105ac57604051630a85bd0160e11b81526001600160a01b0384169063150b7a02906115a5903390889087908790600401612773565b6020604051808303816000875af19250505080156115e0575060408051601f3d908101601f191682019092526115dd918101906127b0565b60015b611649573d80801561160e576040519150601f19603f3d011682016040523d82523d6000602084013e611613565b606091505b50805160000361164157604051633250574960e11b81526001600160a01b0385166004820152602401610514565b805181602001fd5b6001600160e01b03198116630a85bd0160e11b1461168557604051633250574960e11b81526001600160a01b0385166004820152602401610514565b5050505050565b6060600061169983611bd0565b60010190506000816001600160401b038111156116b8576116b8611e83565b6040519080825280601f01601f1916602001820160405280156116e2576020820181803683370190505b5090508181016020015b600019016f181899199a1a9b1b9c1cb0b131b232b360811b600a86061a8153600a85049450846116ec57509392505050565b606082600061172e8460026127cd565b6117399060026127e4565b6001600160401b0381111561175057611750611e83565b6040519080825280601f01601f19166020018201604052801561177a576020820181803683370190505b509050600360fc1b81600081518110611795576117956127f7565b60200101906001600160f81b031916908160001a905350600f60fb1b816001815181106117c4576117c46127f7565b60200101906001600160f81b031916908160001a90535060006117e88560026127cd565b6117f39060016127e4565b90505b600181111561186b576f181899199a1a9b1b9c1cb0b131b232b360811b83600f1660108110611827576118276127f7565b1a60f81b82828151811061183d5761183d6127f7565b60200101906001600160f81b031916908160001a90535060049290921c916118648161280d565b90506117f6565b5081156118955760405163e22e27eb60e01b81526004810186905260248101859052604401610514565b949350505050565b606081516000036118bc57505060408051602081019091526000815290565b600060405180606001604052806040815260200161284760409139905060006003845160026118eb91906127e4565b6118f59190612824565b6119009060046127cd565b6001600160401b0381111561191757611917611e83565b6040519080825280601f01601f191660200182016040528015611941576020820181803683370190505b50905060018201602082018586518701602081018051600082525b828410156119b7576003840193508351603f8160121c168701518653600186019550603f81600c1c168701518653600186019550603f8160061c168701518653600186019550603f811687015186535060018501945061195c565b90525050855160039006600181146119d657600281146119e9576119f1565b603d6001830353603d60028303536119f1565b603d60018303535b509195945050505050565b610446828260405180602001604052806000815250611ca8565b60006001600160e01b031982166380ac58cd60e01b1480611a4757506001600160e01b03198216635b5e139f60e01b145b8061037a57506301ffc9a760e01b6001600160e01b031983161461037a565b8080611a7a57506001600160a01b03821615155b15611b3c576000611a8a846112b6565b90506001600160a01b03831615801590611ab65750826001600160a01b0316816001600160a01b031614155b8015611ac95750611ac78184610fe3565b155b15611af25760405163a9fbf51f60e01b81526001600160a01b0384166004820152602401610514565b8115611b3a5783856001600160a01b0316826001600160a01b03167f8c5be1e5ebec7d5bd14f71427d1e84f3dd0314c0f7b2291e5b200ac8c7c3b92560405160405180910390a45b505b5050600090815260046020526040902080546001600160a01b0319166001600160a01b0392909216919091179055565b611b77838383611cbf565b6105cd576001600160a01b038316611ba557604051637e27328960e01b815260048101829052602401610514565b60405163177e802f60e01b81526001600160a01b038316600482015260248101829052604401610514565b60008072184f03e93ff9f4daa797ed6e38ed64bf6a1f0160401b8310611c0f5772184f03e93ff9f4daa797ed6e38ed64bf6a1f0160401b830492506040015b6d04ee2d6d415b85acef81000000008310611c3b576d04ee2d6d415b85acef8100000000830492506020015b662386f26fc100008310611c5957662386f26fc10000830492506010015b6305f5e1008310611c71576305f5e100830492506008015b6127108310611c8557612710830492506004015b60648310611c97576064830492506002015b600a831061037a5760010192915050565b611cb28383611d22565b6105cd6000848484611563565b60006001600160a01b038316158015906118955750826001600160a01b0316846001600160a01b03161480611cf95750611cf98484610fe3565b806118955750506000908152600460205260409020546001600160a01b03908116911614919050565b6001600160a01b038216611d4c57604051633250574960e11b815260006004820152602401610514565b6000611d5a83836000611379565b90506001600160a01b038116156105cd576040516339e3563760e11b815260006004820152602401610514565b6001600160e01b03198116811461128e57600080fd5b600060208284031215611daf57600080fd5b8135611dba81611d87565b9392505050565b60005b83811015611ddc578181015183820152602001611dc4565b50506000910152565b60008151808452611dfd816020860160208601611dc1565b601f01601f19169290920160200192915050565b602081526000611dba6020830184611de5565b600060208284031215611e3657600080fd5b5035919050565b80356001600160a01b0381168114611e5457600080fd5b919050565b60008060408385031215611e6c57600080fd5b611e7583611e3d565b946020939093013593505050565b634e487b7160e01b600052604160045260246000fd5b6000806001600160401b03841115611eb357611eb3611e83565b50604051601f19601f85018116603f011681018181106001600160401b0382111715611ee157611ee1611e83565b604052838152905080828401851015611ef957600080fd5b83836020830137600060208583010152509392505050565b600082601f830112611f2257600080fd5b611dba83833560208501611e99565b80356001600160401b0381168114611e5457600080fd5b600080600080600080600060e0888a031215611f6357600080fd5b611f6c88611e3d565b965060208801356001600160401b03811115611f8757600080fd5b611f938a828b01611f11565b96505060408801356001600160401b03811115611faf57600080fd5b611fbb8a828b01611f11565b95505060608801356001600160401b03811115611fd757600080fd5b611fe38a828b01611f11565b945050611ff260808901611f31565b925060a0880135915060c08801356001600160401b0381111561201457600080fd5b6120208a828b01611f11565b91505092959891949750929550565b6000806040838503121561204257600080fd5b8235915060208301356001600160401b0381111561205f57600080fd5b61206b85828601611f11565b9150509250929050565b60008060006060848603121561208a57600080fd5b61209384611e3d565b92506120a160208501611e3d565b929592945050506040919091013590565b60a0815260006120c560a0830188611de5565b82810360208401526120d78188611de5565b905082810360408401526120eb8187611de5565b6001600160401b039590951660608401525050608001529392505050565b60006020828403121561211b57600080fd5b611dba82611e3d565b602081526000825160a0602084015261214060c0840182611de5565b90506020840151601f1984830301604085015261215d8282611de5565b9150506040840151601f1984830301606085015261217b8282611de5565b9150506001600160401b036060850151166080840152608084015160a08401528091505092915050565b600080604083850312156121b857600080fd5b6121c183611e3d565b9150602083013580151581146121d657600080fd5b809150509250929050565b600080600080608085870312156121f757600080fd5b61220085611e3d565b935061220e60208601611e3d565b92506040850135915060608501356001600160401b0381111561223057600080fd5b8501601f8101871361224157600080fd5b61225087823560208401611e99565b91505092959194509250565b6000806040838503121561226f57600080fd5b61227883611e3d565b915061228660208401611e3d565b90509250929050565b60008060008060008060c087890312156122a857600080fd5b6122b187611e3d565b955060208701356001600160401b038111156122cc57600080fd5b6122d889828a01611f11565b95505060408701356001600160401b038111156122f457600080fd5b61230089828a01611f11565b94505060608701356001600160401b0381111561231c57600080fd5b61232889828a01611f11565b93505061233760808801611f31565b9598949750929591949360a090920135925050565b600181811c9082168061236057607f821691505b60208210810361238057634e487b7160e01b600052602260045260246000fd5b50919050565b6001600160a01b038716815260c0602082018190526000906123aa90830188611de5565b82810360408401526123bc8188611de5565b905082810360608401526123d08187611de5565b6001600160401b03959095166080840152505060a00152949350505050565b60006020828403121561240157600080fd5b5051919050565b6020808252601190820152702737b732bc34b9ba32b73a103a37b5b2b760791b604082015260600190565b60008151612445818560208601611dc1565b9290920192915050565b7f7b226e616d65223a20224441435653204365727469666963617465222c00000081527f226465736372697074696f6e223a202241636164656d69632043726564656e74601d820152701a585b081bdb88115d1a195c995d5b488b607a1b603d8201526f1139ba3ab232b73a2730b6b2911d101160811b604e82015285516000906124e181605e850160208b01611dc1565b61088b60f21b605e918401918201526a113232b3b932b2911d101160a91b60608201528651606b9091019060009061251d818460208c01611dc1565b820190506125ce6125c06125ba61259b61256d61259561257b8261256761254c8a61088b60f21b815260020190565b6e113ab734bb32b939b4ba3c911d101160891b8152600f0190565b8f612433565b61088b60f21b815260020190565b6d1134b9b9bab2a230ba32911d101160911b8152600e0190565b8b612433565b721131b932b232b73a34b0b62430b9b4111d101160691b815260130190565b87612433565b61227d60f01b815260020190565b9998505050505050505050565b7f646174613a6170706c69636174696f6e2f6a736f6e3b6261736536342c00000081526000825161261381601d850160208701611dc1565b91909101601d0192915050565b634e487b7160e01b600052601160045260246000fd5b6001600160401b03818116838216019081111561037a5761037a612620565b60006001820161266757612667612620565b5060010190565b601f8211156105cd57806000526020600020601f840160051c810160208510156126955750805b601f840160051c820191505b8181101561168557600081556001016126a1565b81516001600160401b038111156126ce576126ce611e83565b6126e2816126dc845461234c565b8461266e565b6020601f82116001811461271657600083156126fe5750848201515b600019600385901b1c1916600184901b178455611685565b600084815260208120601f198516915b828110156127465787850151825560209485019460019092019101612726565b50848210156127645786840151600019600387901b60f8161c191681555b50505050600190811b01905550565b6001600160a01b03858116825284166020820152604081018390526080606082018190526000906127a690830184611de5565b9695505050505050565b6000602082840312156127c257600080fd5b8151611dba81611d87565b808202811582820484141761037a5761037a612620565b8082018082111561037a5761037a612620565b634e487b7160e01b600052603260045260246000fd5b60008161281c5761281c612620565b506000190190565b60008261284157634e487b7160e01b600052601260045260246000fd5b50049056fe4142434445464748494a4b4c4d4e4f505152535455565758595a6162636465666768696a6b6c6d6e6f707172737475767778797a303132333435363738392b2fa26469706673582212206047e624b0f367e4aa230ea5a288181c34b63685e402446e34b5b4fe48e269f964736f6c634300081c0033",
  "linkReferences": {},
  "deployedLinkReferences": {}
}